:100000008031122808000800803120007F08FD00A0
:100010002700160803190E288831AF207D0820001C
:10002000FF00090087318F2FCE3086000130870016
:10003000AC308400003085000C30FF0016001A0040
:10004000FF0B1E282100E4010830640203185E281B
:100050006408A200A301A235A30DA235A30D2208B6
:10006000013EA4000030233DA5002408200786009F
:100070002508213D8700403FA600413FA700423FA1
:10008000A800433FA9006408AA000130AA35FF3E3A
:10009000031D46282A35B83E860087012608C03F42
:1000A0002708C13F2808C23F2908C33F0130A200EA
:1000B0002208E40708306402031C2828E401033006
:1000C0006402031808006403FF3AA2000130A2355D
:1000D000FF3E031D67282235183EB83E8600870183
:1000E000403FA300413FA400423FA500433FA6007C
:1000F0006403FF3AA7000130A735FF3E031D7C28AB
:100100002735143EB83E86008701403FA800413F96
:10011000A900423FAA00433FAB0023082806E000A5
:1001200024082906E10025082A06E20026082B06F5
:10013000E3006403FF3AA2000130A235FF3E031D35
:100140009D282235103EB83E8600870160080105D3
:10015000A300413161080105A40041316208010595
:10016000A500413163080105A6002608E300250823
:10017000E2002408E1002308E0006403FF3AA20043
:100180000130A235FF3E031DC1282235183EB83E7E
:100190008600870160080106A3004131610801065D
:1001A000A400413162080106A5004131630801063F
:1001B000A6002608E3002508E2002408E100230841
:1001C000E0006408A2000130A235FF3E031DE428D0
:1001D0002235AC3E86008701403FE007413FE13DCC
:1001E000423FE23D433FE33D6408A200A301A23544
:1001F000A30DA235A30D2208213EA4000030233D0B
:10020000A5002408200786002508213D8700403FDF
:10021000E007413FE13D423FE23D433FE33D6403B0
:10022000FF3AA2000130A235FF3E031D13292235FB
:100230001C3EB83E86008701403FE007413FE13D5C
:10024000423FE23D433FE33D6403FF3AA2000130F9
:10025000A235FF3E031D28292235103EB83E8600F8
:100260008701403F2000D800413FD900423FDA00DB
:10027000433FDB001A302100A30023082000DC00EC
:100280009D316D25803120005B082100DF002000BA
:100290005A082100DE00200059082100DD0020005E
:1002A00058082100DC006403FF3AA2000130A235A7
:1002B000FF3E031D57292235103EB83E86008701B8
:1002C000403F2000D800413FD900423FDA00433F81
:1002D000DB0015302100A30023082000DC009D3145
:1002E0006D25803120005B082100DB0020005A08CA
:1002F0002100DA00200059082100D9002000580808
:100300002100D8005C085806A2005D085906A30029
:100310005E085A06A4005F085B06A5002508DB00FE
:100320002408DA002308D9002208D8006403FF3A21
:10033000A2000130A235FF3E031D9A292235103E4E
:10034000B83E86008701403F2000D800413FD900D9
:10035000423FDA00433FDB0007302100A3002308BF
:100360002000DC009D316D25803120005B082100DC
:10037000DF0020005A082100DE002000590821007B
:10038000DD00200058082100DC005C085806A200AF
:100390005D085906A3005E085A06A4005F085B06C4
:1003A000A5002508DB002408DA002308D90022086C
:1003B000D80058086007A2005908613DA3005A08F8
:1003C000623DA4005B08633DA5006403FF3AA600FC
:1003D0000130A635FF3E031DE92926351C3EB83EF7
:1003E000860087012208C03F2308C13F2408C23F7E
:1003F0002508C33F6403FF3AA2000130A235FF3E47
:10040000031DFE2922351C3EB83E86008701403F71
:10041000A300413FA400423FA500433FA600640360
:10042000FF3AA7000130A735FF3E031D132A2735E9
:100430000C3EB83E86008701403FA307413FA43DE4
:10044000423FA53D433FA63D6403FF3AA80001306B
:10045000A835FF3E031D282A28350C3EB83E8600ED
:1004600087012308C03F2408C13F2508C23F260852
:10047000C33F6403FF3A0739A2000130A235FF3EB3
:10048000031D3E2A2235B83E86008701403F2000EA
:10049000D800413FD900423FDA00433FDB001E3025
:1004A0002100A30023082000DC009D316D25803150
:1004B00020005B082100E30020005A082100E20030
:1004C000200059082100E100200058082100E00028
:1004D0006403FF3A0739A2000130A235FF3E031D35
:1004E0006D2A2235B83E86008701403F2000D800A3
:1004F000413FD900423FDA00433FDB001330210087
:10050000A30023082000DC009D316D2580312000F0
:100510005B082100DF0020005A082100DE002000D7
:1005200059082100DD00200058082100DC005C088B
:100530006006A2005D086106A3005E086206A400D2
:100540005F086306A5002508DF002408DE002308F5
:10055000DD002208DC006403FF3A0739A200013005
:10056000A235FF3E031DB02A2235B83E8600870122
:10057000403F2000D800413FD900423FDA00433FCE
:10058000DB000A302100A30023082000DC009D319D
:100590006D25803120005B082100E30020005A080F
:1005A0002100E200200059082100E1002000580845
:1005B0002100E00060085C06A20061085D06A3005F
:1005C00062085E06A40063085F06A5002508DF0038
:1005D0002408DE002308DD002208DC006403FF3A63
:1005E000013E0739A2000130A235FF3E031DF42A67
:1005F0002235B83E86008701403FA300413FA4005A
:10060000423FA500433FA6006403FF3A0739A70015
:100610000130A735FF3E031D092B2735B83E860064
:100620008701403FA800413FA900423FAA00433F45
:10063000AB0023082804E00024082904E100250871
:100640002A04E20026082B04E3006403FF3A023E7A
:100650000739A2000130A235FF3E031D2B2B2235A6
:10066000B83E8600870160080105A300413161089A
:100670000105A400413162080105A500413163086C
:100680000105A6002608E3002508E2002408E10091
:100690002308E0006403FF3A013E0739A20001305D
:1006A000A235FF3E031D502B2235B83E8600870140
:1006B000403FA300413FA400423FA500433FA600A6
:1006C0006403FF3A0739A7000130A735FF3E031D39
:1006D000652B2735B83E86008701403FA800413F83
:1006E000A900423FAA00433FAB0023082805D800D9
:1006F00024082905D90025082A05DA0026082B0533
:10070000DB0060085804A20061085904A3006208D5
:100710005A04A40063085B04A5002508E30024082C
:10072000E2002308E1002208E0005C086007A20064
:100730005D08613DA3005E08623DA4005F08633D63
:10074000A5006403FF3AA6000130A635FF3E031D55
:10075000A52B26351C3EB83E86008701220881075E
:1007600041312308813D41312408813D4131250833
:10077000813D6403FF3AA2000130A235FF3E031D14
:10078000BD2B22351C3EB83E86008701403FA300AA
:10079000413FA400423FA500433FA6006403FF3A47
:1007A000A7000130A735FF3E031DD22B2735083E99
:1007B000A83E8600013087002308C03F2408C13FBF
:1007C0002508C23F2608C33F6403FF3AA200013058
:1007D000A235FF3E031DE82B22350C3EB83E8600B5
:1007E0008701403FA300413FA400423FA500433F93
:1007F000A6006403FF3AA7000130A735FF3E031DA2
:10080000FD2B2735143EA83E8600013087002308C3
:10081000C03F2408C13F2508C23F2608C33F01301E
:10082000A2002208E4075F28230060082100DE0000
:10083000DF01DE09DF09DE0A0319DF0A220057089B
:1008400021005E07E0005F0803185F0AE10060080E
:100850002200CC00210061082200CD004D082000BC
:10086000E101E10722004C082000E001E0079C3193
:1008700098248431200060082100B600200061081F
:100880002100B700200062082100B80022005708AC
:100890002100DE00DF01DE09DF09DE0A0319DF0ABD
:1008A0002200310821005E07E0005F0803185F0A9C
:1008B000E100E035E10DE035E10DE035E10D6008E6
:1008C0002000E000210061082000E1009C31982414
:1008D0008431200060082100B00020006108210060
:1008E000B100200062082100B2009A319D228431BB
:1008F00021003008B3003108B4003208B5008E3151
:10090000FC26843121003308E2003408E300350876
:10091000E4006208B6006308B7006408B80023006A
:1009200027082000E101E107230026082000E0015C
:10093000E0079C3198248431200060082100A30046
:10094000200061082100A400200062082100A50009
:100950000030A0000030A1003F30A2008C3176248E
:10096000843121002008B0002108B1002208B20023
:100970009A319D22843121003008B3003108B4003F
:100980003208B5008E31FC26843121003308D000B6
:100990003408D1003508D20094318D2484312100EF
:1009A00051082200A301A307210050082200A20140
:1009B000A2076A0822072100DE002200230803188C
:1009C000230A2100DF005F08803AFF0080307F02A9
:1009D000031DEC2C4C305E02031C0C2D22006A0817
:1009E00022072100DE00220023080318230A210029
:1009F000DF005F08803AFF0081307F02031D022D77
:100A000000305E0203180C2D220022082100DE00B7
:100A10005E082200EA07402D22006A082207210012
:100A2000DE00220023080318230A2100DF005F08EC
:100A3000803AFF0081307F02031D202D00305E02CE
:100A4000031C242DFF303B2D22006A0822072100C1
:100A5000DE00220023080318230A2100DF005F08BC
:100A6000803AFF0080307F02031D382D4B305E023C
:100A70000318402D4B302100DE005E082200EA0002
:100A8000220057082100DE005E082200B1004D0858
:100A90002300A701A70722004C082300A601A607F0
:100AA0000630523E86000130870022006A08C03FAF
:100AB0002C009200080020004208013A031D722D0C
:100AC00040081F390038031D722D2200C91720006D
:100AD0004108033A031D702D2200B201B20A722DA3
:100AE0002200B20120004208031D080040081F39FF
:100AF000023A031D080044080F39003A03190800A0
:100B000044080F392100A60002302602031808000D
:100B10006E08203A031D08002200C9172000C41BDC
:100B2000A12D44080F39283E8600013087000108B6
:100B30002100A6002608AB00200044080F39263EFD
:100B4000B02D200044080F39683E86008701010857
:100B50002100A6002608AB00200044080F39243EDF
:100B600086000130870001082100A6002608AA009F
:100B70002A18BF2DFB30A6002608AB05C02D2B156B
:100B80002000C41BCE2D21002B08A6002000440805
:100B90000F39283E860001308700D72D21002B0811
:100BA000A600200044080F39683E86008701210016
:100BB0002608810020004108033A031DFC2D210076
:100BC0002B0886008701811FF32D2000C41BEC2D0C
:100BD00044080F39263EEF2D44080F39243E860085
:100BE00001308700811484302100A6002B08860084
:100BF000870126088104080004302100A600260889
:100C0000AB062B0886008701811F212E7F30A600AE
:100C10002B0886008701260881052B08860087019E
:100C200001170530A0000030A1002B08A200003001
:100C3000A3000130A4000030A5009D31A42585311A
:100C4000262E21002B088600870101170430210081
:100C5000A6002608AB06AA18322E2B0886008701AC
:100C6000811F582E2000C41B392E44080F39263E00
:100C70003C2E44080F39243E860001308700811045
:100C80003B302100A6002B0886008701260881053D
:100C90000530A0000030A1002B08A2000030A30006
:100CA0000130A4000030A5009D31A4258531602EBF
:100CB0003B302100A6002B0886008701260881050D
:100CC000200044080F39983E2100A600A7010E30ED
:100CD000A73D2608A8002708A900FE30A60028087E
:100CE0008600290887002608810508002200E10007
:100CF000742F073055020318D12E6108023E86007A
:100D000002308700400855072100EA00EB01EB0D97
:100D100007306A052000D800003021006B05200054
:100D2000D9002D30DA000030DB009B31F72386310B
:100D300088302100EC002230ED002000580821000E
:100D40006C0784002000590821006D3D85002D307E
:100D5000FF0016001A00FF0BA92E0130EA006A08F6
:100D60002200D5075208523A031DD12E9431072490
:100D70008631D12EC001D5015230592F6108200093
:100D8000DE000230DF009F30E0008830E1000C30F0
:100D90002100EA006A082000E2008931B32186318F
:100DA0008C2F22005E2F6108023E860002308700F1
:100DB0001600010403191F2F6108023E860002304D
:100DC0008700DA308400013085000630FF0016000D
:100DD0001A00FF0BE72E023023005B025830031984
:100DE0005A020318F72E5830DA000230DB000530C3
:100DF0005B02DC3003195A02031C022FDB30DA00DD
:100E00000530DB005A082100DE0023005B082100CA
:100E1000DF00E001E1018D313825863123005C08D7
:100E20000319192F5C082100EA006A082300E0007A
:100E30001F2F8F302100EA006A082300DC00220007
:100E400061082000DE000230DF00DA30E00001300F
:100E5000E10006302100EA006A082000E200893142
:100E6000B32186318C2F22006108023E86000230B9
:100E700087000108313A0030031901302100EA00EF
:100E8000EA0E22000C0821006A06EF396A062200E9
:100E90008C006108023E8600023087000108313A6A
:100EA0000319542F4430552F5230DF000030E0003A
:100EB0005F082100EA006A082200D20061082000D1
:100EC000DE000230DF005230E0000130E1000D3082
:100ED0002100EA006A082000E2008931B32186314E
:100EE0002200D901DE018C2F6108860002308700C4
:100EF0000108413A0319BA2E023A0319D32E063AD1
:100F00000319332F0C3A0319BE2E1A3A0319D12EA6
:100F1000043A0319792E8C2F22008C160800883091
:100F20008400223085006830FE000130FF009A31D5
:100F3000B2228731E801E901EA01EB01EC01ED01A0
:100F4000EE01EF012100EE01EF01203084000130BD
:100F500085003230FE000030FF009A31B222873126
:100F6000A0308400013085002E30FE000030FF00EC
:100F70009A31B2228731603084000230850010300F
:100F8000FE000030FF009A31B22287312030840009
:100F9000033085002030FE000030FF009A31B2227D
:100FA0008731BE3084009A3085005230860001308F
:100FB00087000030FF000D309A31A6228731EE30D5
:100FC00084009A308500CE308600013087000030E2
:100FD000FF0012309A31A6228731353084009C30D0
:100FE000850040308600033087000030FF0020304D
:100FF0009A31A62220009B31542B80310220080018
:101000000034AB34053439346D34343403344B3468
:1010100000346C3400346F3400346E340034643483
:101020000034693400346B340034653400342034C7
:10103000003450340034723400346F3400346A3475
:1010400000346534003463340034743400340034C4
:1010500000340034003400340034003400340034F0
:1010600000340034003400340034003400340034E0
:101070000034343403344B340034313400343634E7
:1010800000340034003400340034003400340034C0
:1010900000340034003400340034003400340034B0
:1010A00000340034003400340034003400340034A0
:1010B0000034003400340034003400340034003490
:1010C0000034003400340034003400340034003480
:1010D0000034003400340034003409340234203445
:1010E0000034013401340034C0343234093404345F
:1010F000003400340234FF34FF34FF34003407344A
:1011000005340134023440340034013407340534EA
:101110008134023440340034013412340134003458
:1011200002340034003400340834D83404340A342F
:10113000F634003400340134023400340134103405
:101140004B34313436340034003400340034EF345E
:10115000BE34AD34DE3404340334093404342200A4
:10116000B6010430220033020318E5282000911E46
:10117000CA2823001908FC0022003308023EC83E9A
:101180008600013087007C0881000130FC007C086B
:10119000B307B6010130FC007C082200B6072230FC
:1011A0003602031CD8280130FC007C08DE07022927
:1011B00023009D1CB12822005208573A031D022922
:1011C0000130FC007C08D90702295208573A031D58
:1011D00002293D30FC007C082300C800220056088C
:1011E000FC007C082300C900C830F6000130F7007D
:1011F000C930F8000130F9000530FC007C08FA0025
:101200009631312623009D139D172200B30127003C
:1012100096010800210012113D00930190019801F0
:101220000E302000DB009930DA00DC015C08031D81
:1012300029295A0886005B08870081010130DA07F6
:101240000030DB3D0130D8005808DC075C0803198A
:10125000192916303D0091009F3097007B30920095
:101260002000DD0108305D0203184F295D08D80019
:101270000130D835FF3E031D39295835203E860000
:1012800087010030C03F0030C13FC23FC33F013043
:10129000D8005808DD0708305D02031C36293D00E0
:1012A0000E1796010E120E133D00901D6429F730A3
:1012B0002000D80058083D0090052200C9012300F5
:1012C000A201A301A401542901302000D80058082C
:1012D0002200BC0001302000D80058082200BD00C8
:1012E000B801B901B7012000DD0102305D02031829
:1012F00098295D08683E8600870181015D08283EC7
:1013000086000130870081015D08243E860001309F
:10131000870081015D08263E86000130870081013B
:101320000130D8005808DD0702305D02031C79291E
:101330002830D8005808E80016303D0098004030AA
:101340002000D8000030D9005808A2005908A30096
:101350000830A1008430D8005808A0002200CE0137
:101360002100EE010800200062082100A000A10178
:10137000220050082100A200A30122082000D8006A
:10138000210023082000D9000F30DA000030DB00F4
:101390009B31F723893121002008200058072100C4
:1013A000A40021082000593D2100A5002408023E88
:1013B000A6000030253DA7002708803AFF008030B6
:1013C0007F02031DE5294030260203180800200093
:1013D0005E0886005F08870001082100A0000F302A
:1013E000A10021082000D800220050089A31DC22F8
:1013F0008931203E860002308700210020088100CC
:10140000220034082100A0000F30A1002108200094
:10141000D800220050089A31DC2289312100A20034
:10142000220A203E8600023087002008810020002A
:10143000E301620863020318532A61082100A10036
:10144000200060082100A000200063082100200780
:10145000840021080318210A85000008A200220048
:1014600050082100A300A40123082000D800210077
:1014700024082000D9000F30DA000030DB009B3157
:10148000F7238931200058086307023E203E86007A
:10149000023087002100220881000130A0002008CE
:1014A0002000E307192A2200500A03392100A00076
:1014B00020082200D000080022002A0886002B08FD
:1014C000870048308E01011890308E0048308E0120
:1014D000811890308E0048308E01011990308E00B6
:1014E00048308E01811990308E0048308E01011AEB
:1014F00090308E0048308E01811A90308E00483036
:101500008E01011B90308E0048308E01811B90307F
:101510008E00413148308E01011890308E004830E5
:101520008E01811890308E0048308E010119903064
:101530008E0048308E01811990308E0048308E0127
:10154000011A90308E0048308E01811A90308E0042
:1015500048308E01011B90308E0048308E01811B77
:1015600090308E00413148308E01011890308E004D
:1015700048308E01811890308E0048308E0101195C
:1015800090308E0048308E01811990308E004830A6
:101590008E01011A90308E0048308E01811A9030F1
:1015A0008E0048308E01011B90308E0048308E0135
:1015B000811B90308E00413148308E0101189030EF
:1015C0008E0048308E01811890308E0048308E0198
:1015D000011990308E0048308E01811990308E00B4
:1015E00048308E01011A90308E0048308E01811AE9
:1015F00090308E0048308E01011B90308E004208E2
:101600008E01811B43088E004131C50B612A080001
:1016100010302000E10061082200D30002302000D9
:10162000D8000030D900220053082000E100E20178
:101630006108DA006208DB009F31AC278B312000A3
:101640005808E30063082200EC006C082000E10069
:10165000E2016108D8006208D9000030DA004030A9
:10166000DB009F31AC278B31200059082100A101FC
:10167000A107200058082100A001A0070230200087
:10168000D8000030D900210021082000DB01DB0751
:10169000210020082000DA01DA079F31AC278B31C6
:1016A000200059082200DD01DD0720005808220033
:1016B000DC01DC0700302600A3000030A20000306F
:1016C000A1000030A0002100A201A20A22006C08A3
:1016D000210022020318B62B22006C082000E10032
:1016E0000130E135FF3E031D712B6135FC3E403E6C
:1016F000860003308700403FE200413FE300423F65
:10170000E400433FE500210022082000E60001300C
:10171000E635FF3E031D882B6635FC3E203E8600E5
:1017200003308700403FE207413FE33D423FE43D55
:10173000433FE53D210022082000E7000130E73566
:10174000FF3E031D9F2B6735203E86000330870038
:101750006208C03F6308C13F6408C23F6508C33FD9
:101760000130E10061082100A207662B5230200001
:10177000E10061082200D200DA01DB01080021004B
:101780004308C6004408C7004508C8000310470DB9
:10179000480DC9004908CE00CE08031DD62B0030E5
:1017A000C0000030C1000030C20008004008C60080
:1017B0004108C7004208C8000310470D480DC90082
:1017C0004908CF00CF08031DEC2B0030C0000030CB
:1017D000C1000030C20008000030CB000030CC0057
:1017E0000030CD0089304F07C6004608CE024308BE
:1017F000C6004408C7004508C8001030C836C70CEA
:10180000C60C890BFE2B4608C9004908CF004008CA
:10181000C6004108C7004208C8001030C836C70CCF
:10182000C60C890B0E2C4608C9004908CF0680302B
:10183000C6004608CF05C417FF30C305FF30C405F6
:101840000030C505C117FF30C005FF30C1050030AD
:10185000C2051830C6004608CA000130CB35CC0D91
:10186000CD0D890B2E2C42084502031D3D2C41084D
:101870004402031D3D2C40084302031C462C400833
:10188000C3024108C43B4208C53B4B140130C33579
:10189000C40DC50D890B472C0130CA02031D2D2C28
:1018A0004B082000D80021004C082000D90021005E
:1018B0004D082000DA0021004E08C600460820002E
:1018C000DB0021004F08C70047082000DC009031F2
:1018D000F120200058082100C000200059082100F4
:1018E000C10020005A082100C20008002100200881
:1018F000A6002108A7002208A8000310270D280D24
:10190000A9002908AA00AA08031D8D2C0030A000F8
:101910000030A1000030A20008002308A60024081F
:10192000A7002508A8000310270D280DA9002908E5
:10193000AF00AF08031DA32C0030A0000030A100B1
:101940000030A20008002F087B3EA6002608AA0748
:101950002008A6002108A7002208A8001030A836F9
:10196000A70CA60C890BAF2C2608A9002908AF00EC
:101970002308A6002408A7002508A8001030A836D0
:10198000A70CA60C890BBF2C2608A9002908AF06B6
:101990008030A6002608AF05A117A417FF30A305C5
:1019A000FF30A4050030A5050030AB000030AC00CE
:1019B0000030AD000730A6002608AE00201CE62C43
:1019C0002308AB072408AC3D2508AD3D0130A23605
:1019D000A10CA00C890BE72C0130A335A40DA50D9B
:1019E000890BED2C0130AE02031DDE2C0930A60060
:1019F0002608AE00201C022D2308AB072408AC3DAE
:101A00002508AD3D0130A236A10CA00C890B032D99
:101A10000130AD36AC0CAB0C890B092D0130AE0298
:101A2000031DFA2C2B082000D80021002C082000D0
:101A3000D90021002D082000DA0021002A08A60084
:101A400026082000DB0021002F08A700270820001F
:101A5000DC009031F120200058082100A000200077
:101A600059082100A10020005A082100A200080006
:101A7000210061082000E300210060082000E2004E
:101A800021005F082000E10021005E082000E00046
:101A90009C31DF248D31200060082100B600200039
:101AA00061082100B700200062082100B800003062
:101AB000B300C830B4004030B5008E31FC268D3103
:101AC00021003308C3003408C4003508C5000030C5
:101AD000C0004830C1004130C2008B31BF238D317E
:101AE00021004008D0004108D1004208D2009431C2
:101AF0008D248D3121005308E9005208E800510877
:101B0000E7005008E60069082000DB0021006808B3
:101B10002000DA00210067082000D90021006608B3
:101B20002000D8000030DF000030DE000030DD0093
:101B30001930DC00903106208D312000580821003A
:101B4000E200200059082100E30020005A0821008B
:101B5000E40020005B082100E5000130E536E40CDC
:101B6000E30CE20C890BAE2D63082300DB01DB07DD
:101B7000210062082300DA01DA077F3021006605C0
:101B8000E20000306705E30000306805E400003043
:101B90006905E5001530E235E30DE40DE50D890B2F
:101BA000CB2D473062042300C000003021006304C5
:101BB0002300C1000230210064042300C200003071
:101BC000210065042300C3000030C7000030C600B8
:101BD0000030C5000030C4005B082000D901D907DF
:101BE00023005A082000D801D8077E30DA002530BB
:101BF000DB009D31362520005808FF3A013E2100C8
:101C0000E20062082200EB0008002100EE08031D3C
:101C1000192E3D008E019201163091009F309700E1
:101C20007B3092008E19162E8E15122E2100EE0199
:101C3000EE0A6E08013A031D292E3D008E1A292E48
:101C4000900192011214121602302100B2003208E3
:101C5000EE003D001019121D362EFB302100B2009F
:101C600032083D0090059B316B238E313D008E1C68
:101C70003C2E2000121108001018121C4C2E893125
:101C80000A218E3104302100B2003208EE00FE300D
:101C9000B20032083D009005101A121E582E9B31DA
:101CA000A2238E31EF302100B20032083D009005B2
:101CB000101F7E2E121F6C2E73302100A0000030EA
:101CC000A1000030A2000030A3000130A4000030C9
:101CD000A5009D31A4258E31BF302100B20032080D
:101CE0003D00900522003E080319782E0130BE0207
:101CF000BE08031D7E2E9131B5218E313D00901A14
:101D0000921E852E9C3176248E313D009018921CB7
:101D10009B2EFF302100A0007F30A1000030A200E8
:101D20000030A3000130A4000030A5009D31A4259F
:101D30008E313D009301043021006E020318A32E62
:101D40002000121108003D00921DF92E2100B4015F
:101D5000F22E0F082100B2003208EF006F0CB20023
:101D6000B20C320C0F39B30033082200C100F73037
:101D70002100B20032083D00900521006F19C42EE9
:101D800022004108263EC72E22004108243E86003C
:101D900001308700010801392100B2000130B2068C
:101DA00001083206FE39320681002200C108031DF7
:101DB000DD2E93310C238E31ED2E72302100A000E8
:101DC0000030A100EF30A2000030A3000030A400DA
:101DD0000030A5009D31A4258E3101302100B200D4
:101DE0003208B407043034020318F92E3D0090196C
:101DF000A92E20001211080021003308B900340870
:101E0000BA003508BB0003103A0D3B0DBC003C087E
:101E1000BF003608B9003708BA003808BB00031005
:101E20003A0D3B0DBC003C08BE003F080319242FAF
:101E30003E083F0203182B2F3F03FF3A3E07B9002D
:101E400019303902031C2B2F3608B3003708B400B1
:101E50003808B50008003E08031908003F083E0294
:101E600003183A2F3E03FF3A3F07B90019303902F1
:101E7000031808000630B9003908BD00B51BBD17AE
:101E8000B81B3D17B417FF30B305FF30B405003061
:101E9000B505B717FF30B605FF30B7050030B805F8
:101EA0003E083F020318762F0130B635B70DB80D46
:101EB000890B552F0130BE023E083F060319712FD2
:101EC0000130BD023D0807390319712F542F01302D
:101ED000B536B40CB30C890B682F0130B900390842
:101EE000BF073F083E0603199B2F672F3F083E029E
:101EF00003189B2F0130B335B40DB50D890B7B2F23
:101F00000130BF023E083F060319972F0130BD0282
:101F10003D0807390319972F7A2F0130B836B70CCF
:101F2000B60C890B8E2F0130B9003908BE073F0867
:101F30003E06031D8D2FBD1FAD2FFF30B306FF30B2
:101F4000B406FF30B5060130B30700300318013086
:101F5000B407003003180130B5073D1FBF2FFF3015
:101F6000B606FF30B706FF30B8060130B6070030BE
:101F700003180130B707003003180130B807BD015E
:101F80003308B6073408B73D3508B83DB81FDA2F17
:101F9000FF30B606FF30B706FF30B8060130B6078F
:101FA000003003180130B707003003180130B807BC
:101FB000BD01BD0A36082000D800210037082000E6
:101FC000D900210038082000DA0021003F08B900BC
:101FD00039082000DB0021003D08BA003A08200043
:101FE000DC009031F120200058082100B3002000CF
:101FF00059082100B40020005A082100B50008004B
:10200400080008000800080000302000E300003049
:10201400E2000030E1000030E000581C19285C08A0
:10202400E0075D08E13D5E08E23D5F08E33D013005
:10203400DC35DD0DDE0DDF0D890B1A280130DB36B2
:10204400DA0CD90CD80C890B21285B085A045904E2
:102054005804031D0F286308DB006208DA006108D6
:10206400D9006008D800080022006B082100E500B0
:102074006508200095070B1122005208573A031DEA
:1020840061280830523E8600013087000130810704
:1020940041310318810A7F31403F5C06031D5428F7
:1020A400413F5D06031D6128550803195B28503024
:1020B4005C2852302100E50065082200D20001307E
:1020C4002100E50065082200B507031D08008C12F5
:1020D40021001C08E50065082200D70021009D149A
:1020E4000F302000D8000030D90001302100E50075
:1020F40065082200BF073F082100E600E7016608E3
:102104002000DA00210067082000DB009E3123262E
:102114009031200059085804031D08008431142408
:1021240008002000400E890C0339003A031D080002
:10213400E5282200C91708302100AC002C08EE0065
:1021440008009331882308009531A22508004E30F9
:102154002200C7000130C8004914CA01CA0AC917BD
:1021640008009F315927080085315B2508002000AD
:1021740044084F3E2200C7000130C8004914CA0178
:10218400CA0AC91708002200C91720004208210002
:10219400AC00200044084F3E860001308700210037
:1021A4002C088100080002302100A0000030A100AA
:1021B4000030A2000030A3000030A4000030A500CD
:1021C4009D31A42508002000410884000D3004023C
:1021D4000318080098310435003E820008002000EE
:1021E4005B080319FA285A0859045804031D0B29DB
:1021F4000030D8000030D9000030DA000800013087
:10220400DD005D08DB070130DA36D90CD80C890B08
:102214000629FE305A050319242901290130DD005D
:102224005D08DB070130D807003003180130D907F7
:10223400003003180130DA070130DA36D90CD80C33
:10224400890B1F29FF305A05031931291029013040
:10225400DB020130D835D90DDA0D890B2C29D91FB1
:1022640029295B183B29FF30D8057F30D905FF3079
:10227400DA050310DB0C5B08DD00DE01DF01103042
:10228400DD35DE0DDF0D890B42295D08D8045E08BB
:10229400D9045F08DA045C0803190800DA17080097
:1022A40020006808860087010030011B0130DD0032
:1022B4000430DB005B08E80621006E08083A031DC1
:1022C4007229200042083D009600160803196C2963
:1022D40010306D2904302000DB005B082100EE0083
:1022E40020006C08013A031DA8294830DB000030A7
:1022F400DC006808023E860087015B08C03F5C087A
:10230400C13F95311425913122004608023A031D3C
:10231400942984302000DB006808860087015B086C
:10232400810008002000DD08031DA029C830DB005F
:102334006808860087015B08810008008830DB009C
:102344006808860087015B08810008002300A21F3B
:10235400B22925080319B12925089131B029A213FE
:102364002000EC0108002200BC08031D0800013015
:102374002000D80058082200BC00BD08031D080036
:1023840001302000D80058082200BD0020006C084D
:10239400023A031DD929680A860087018101C830E1
:1023A400D8006808860087015808810008006C0876
:1023B400013A031D08002200AC0108302000D800B7
:1023C4006D0A86008701580881004030D80000302B
:1023D400D9006D08023E860087015808C03F59089D
:1023E400C13F8430D8006D088600870158088100F9
:1023F4002200AC01AC0A08302000D8006E0A860026
:102404008701580881004030D8000030D9006E0898
:10241400023E860087015808C03F5908C13F8030FA
:10242400D8006E08860087015808810008003D0026
:102434000E122200C91B532A2300A21F302A023085
:102444002000DD005D08EC002200B908031D2C2AE1
:102454009E31B9262200BD01BC01080008302000CD
:10246400DD006E0A860087015D0881004030DD00D2
:102474000030DE006E08023E860087015D08C03F22
:102484005E08C13F8C30DD006E08860087015D0860
:1024940081008430DD006808860087015D088100C2
:1024A40008002000C01F692AEC01EC0A2200B808C9
:1024B400031D5F2A9E31B92692312200BD01BC0161
:1024C4002000EB08031D08009131B52108000230FB
:1024D4002000DD005D08EC000830DD006E0A860097
:1024E40087015D0881004030DD000030DE006E08A9
:1024F400023E860087015D08C03F5E08C13F84300C
:10250400DD006E08860087015D0881002200BD01A0
:10251400BC012000EB08031D08009131B52108001F
:10252400203021006E02031C08003D008E180800B4
:1025340022003B080319AB2A3B0886008701010DE2
:10254400010D0139E200E3016208E6006308E700D7
:10255400AD2AE601E70167086604031DCB2AA03013
:102564008631762692312000DC01A0302200E20080
:1025740062082000DD0040302200E30063082000F0
:10258400DE0001309E316B2692312200E4006408A3
:10259400BB0050085106031908003A080319DF2A42
:1025A4003A0886008701010D010D0139E200E301BB
:1025B4006208E8006308E900E12AE801E901690822
:1025C4006804031D08002000DC01DC0A0F3022002F
:1025D400E20062082000D800220051089A31DC226F
:1025E4009231203E2200E30063082000DD000F301A
:1025F4002200E40064082000DE0001309E316B26D6
:102604002200E5006508BA00510A0339E2006208B5
:10261400D100080028302100AE002E082200BE00A0
:1026240021006F08FD39031D7D2B6F363F39AE0045
:102634000130AE35FF3E031D1B2B2E35203EAF006F
:102644002F082000ED006D082100AE002E082000A8
:10265400EE0004302100AE002E082000EE066D08C6
:1026640086008701010C890C0F390D3A031D7A2B62
:102674002100B101083031020318692B20006D08D4
:10268400023E86008701403F2100AE00413FAF007B
:102694002E0886002F0887000108B0003108403E4C
:1026A400860087013008810020006D08023E860004
:1026B40087010130810741310318810A013021006B
:1026C400AE002E08B10708303102031C402B403005
:1026D400AE000030AF0020006D08023E8600870186
:1026E40021002E08C03F2F08C13F9F310927080051
:1026F4009D3109250800FD3021006F05AE002E082C
:10270400043A031D080091315221080020004008BA
:10271400803A031D0800C030D80058082200C900C0
:10272400FA2B8D302200C7008830C8001230CA004E
:102734000030CB000800043084008830850020007D
:10274400420884070318850A003F2200C700883026
:10275400C80048082000D900220047082000D800FB
:1027640002305807840059080318590A85000008E4
:10277400DA005A082200CA0048082000D9002200C2
:1027840047082000D800033058078400590803186C
:10279400590A85000008DA005A082200CB00080014
:1027A4000330200042020318F42B013084008830E7
:1027B4008500420884070318850A003F2200C700E9
:1027C4008830C800470884004808850000082000B5
:1027D400D800D90158082200CA0020005908220054
:1027E400CB0008002200C90108002200C90108002A
:1027F40020004308013A0319932B033A03199D2B34
:10280400013A0319D22BF72B0800220040082100BB
:10281400E500E60165082000D800210066082000D4
:10282400D9002D30DA000030DB009B31F7239431DE
:1028340088302100E7002230E800200058082100F9
:102844006707A000200059082100683DA1008031DD
:1028540014209431220040082100E500E6016508B7
:102864002000D800210066082000D9002D30DA00AD
:102874000030DB009B31F723943188302100E700DE
:102884002230E80020005808210067078600200055
:1028940059082100683D87000108E9006908220001
:1028A400D60040082100E500E60165082000D800B4
:1028B400210066082000D9002D30DA000030DB004A
:1028C4009B31F723943188302100E7002230E8005F
:1028D40020005808210067072000DE005908210065
:1028E400683D2000DF009631C4262200400A0739E3
:1028F4002100E50065082200C000DA01DB016B0855
:102904002000950057302100E50065082200D20020
:102914000130D502080021005008D4005108D50028
:102924005208D6000310550D560DD7005708DD0088
:10293400DD08031DA62C0030D3000030D200003087
:10294400D1000030D00008005008D4005108D50050
:102954005208D6001730D636D50CD40C890BAD2CC2
:102964005408D7005708D800D117FF30D005FF30DE
:10297400D1050030D2055008D9005108DA005208B8
:10298400DB00DC018E30DD02DD1FE42C5D08803AC3
:102994008F3E0318D62C0030D3000030D200003014
:1029A400D1000030D00008000130DC36DB0CDA0C3A
:1029B400D90C890BD72C0130D4005408DD07031936
:1029C400FD2CD62C18305D02031CFA2C0030D300E9
:1029D4000030D2000030D1000030D00008000130B7
:1029E400D935DA0DDB0DDC0D890BF22C0130DD025B
:1029F400DD08031DF12C580803190B2DD909DA0938
:102A0400DB09DC09D90A0319DA0A0319DB0A0319F9
:102A1400DC0A5C08D3005B08D2005A08D1005908CC
:102A2400D000080008302000D8005808DA00003030
:102A340022004B02083003194A020318372D4A08B2
:102A44002000D8005808DA002200C608031D2D2DE6
:102A5400C601C60A372D4608013A031D372D023038
:102A64002000D80058082200C6000330473E8600E4
:102A74000130870020005A08D800D901D809D909A3
:102A8400D80A0319D90A403F58072200CA00413F17
:102A94002000593D2200CB0020005A08D800680AC3
:102AA40086008701580881004830D8005808220061
:102AB400C400491C7B2D9D2D220047088400480832
:102AC400850000082000D800220044088600870101
:102AD40020005808810001302200C7070030C83D9B
:102AE40001302000D80058082200C407013020001B
:102AF400DA022000DA08031908005E2D22004708D4
:102B040084004808850000082000D80022004408FA
:102B14008600870120005808810001302200C70781
:102B24000030C83D01302000D80058082200C407F6
:102B340001302000DA022000DA0803190800802D91
:102B44002200C9170E302100A8009930A700A9015E
:102B54002908031DBD2D2708860028088700810148
:102B64000130A7070030A83D0130A6002608A907B8
:102B740029080319AD2D20302000D8000030D900D9
:102B84000030DA000030DB002030DC000030DD00F3
:102B94009C31152495313D000E172100AA01023005
:102BA4002A020318E92D2A08243E860001308700F2
:102BB40081012A08263E8600013087008101013008
:102BC400A6002608AA0702302A02031CD52D4F307E
:102BD4002000D8000130D9000030DA000030DB00DA
:102BE4000130DC000030DD009C31152495313D00BE
:102BF4000E1328302100A60026082000E80020300B
:102C04002100A60026082000ED006D082100A60082
:102C140026082000EE0042082100A6002608220013
:102C2400CE00CE08031D1C2E10302100A60026085D
:102C3400EE00080001302100A0000030A1004E3059
:102C4400A2000130A3000130A4000030A5009D3192
:102C5400A42520302100A6002608EE0008007A08EA
:102C64002000D000D101220050082000D200D3015E
:102C74005208F0005308F1000F30F2000030F30066
:102C84009B31DA239631200050087007D400510894
:102C9400713DD5005408023ED6000030553DD700A2
:102CA4005708803AFF0080307F02031D5B2E4030BE
:102CB4005602031808007608860077088700010882
:102CC4002000D0000F30D1005108F000220050083D
:102CD4009A31CB229631203E8600023087002000B4
:102CE40050088100220034082000D0000F30D100A9
:102CF4005108F000220050089A31CB22963120006E
:102D0400D200520A203E860002308700500881001B
:102D1400FB017A087B020318BB2E7908D1007808DE
:102D2400D0007B085007840051080318510A85001D
:102D34000008D200220050082000D300D401530818
:102D4400F0005408F1000F30F2000030F3009B3122
:102D5400DA23963170087B07023E203E860002305B
:102D640087002000520881000130D0005008FB0782
:102D74008B2E2200500A03392000D0005008220074
:102D8400D00008008B1348302000E00060082200C7
:102D9400C20090302000E00060082200C300C03070
:102DA400AA000130AB0002302000E00060082200DD
:102DB400C5008A315C22963120005E08213E220043
:102DC400AA00003020005F3D2200AB000330200049
:102DD400E00060082200C5008A315C229631AC30E4
:102DE4002200AA000130AB0005302000E00060089A
:102DF4002200C5008A315C22963120005E08013E23
:102E04002200AA00003020005F3D2200AB00083001
:102E14002000E00060082200C5008A315C2296315F
:102E2400A8302200AA000130AB00C501C50A8A31CE
:102E34005C22963150302200C3002000E00060087C
:102E44002200C2002030AA000330AB006C0820002E
:102E5400E00060082200C5008A315C22D8302200DC
:102E64008E008B17FD30230040052000E000FF306A
:102E7400230041052000E100FF302300420520002B
:102E8400E200FF30230043052000E3006308230031
:102E9400C300200062082300C20020006108230050
:102EA400C100200060082300C000080020006D0855
:102EB40086008701413FDD005D08DA00DB015B0825
:102EC40023002402031D6A2F20005A082300230232
:102ED4000318712F23082000DA005A08DD0003309C
:102EE400A03E86000130870020005D08DA00DB0187
:102EF400DA09DB09DA0A0319DB0A403F5A0723001F
:102F0400A300413F20005B3D2300A4002000DC011E
:102F14005D085C020318A62F5C08483E8600870102
:102F24000108DA00230020088600870120005A08DF
:102F340081000130DA005A082300A0070130200084
:102F4400DA005A08DC078A2F0330A03E86000130DD
:102F54008700160001040319D72F0830DA006E0A1F
:102F6400860087015A0881004830DA000030DB000F
:102F74006E08023E860087015A08C03F5B08C13FC5
:102F84006D0886008701011BCF2FC830DA006E0858
:102F9400860087015A08810008008830DA006E082C
:102FA400860087015A08810008000830DA006E0A9A
:102FB400860087015A0881004030DA000030DB00C7
:102FC4006E08023E860087015A08C03F5B08C13F75
:102FD4008430DA006E08860087015A0881002300D5
:102FE40025080319F82F25089731F72FA21320007D
:102FF400EB08031D08009131B52108009031B32876
:103004009031B6289031F0289031B6289031F028CC
:1030140090319B289031A3289031D5289031A9284C
:103024009031A6289031B9289031C5289031F028E4
:10353A002100320831043004031908008030B20631
:10354A000800FE0012001E000130FE020030FF3BA0
:10355A007F087E0403190034A72A64008001013120
:10356A000130FE020030FF3B7F087E04031900345D
:10357A00B32A4934003400340034003400340034AF
:10358A00003400340034003440340034F200F301D3
:10359A00721CD32A7008F1007108F3070310F00DAA
:1035AA000310F20CF208031DCD2A7308080020004C
:1035BA00DB00DA015B1CE52A5808D9005908DA074A
:1035CA000310D80D0310DB0CDB08031DDF2A5A0891
:1035DA00080098342F348A344234913444343734CE
:1035EA007134CF34FB34C034B534B03404348F343E
:1035FA000034003400342200B30123001E169D1744
:10360A009E131F129F158D12270094178B15960172
:10361A008B1723001D16FF309900080021008C1219
:10362A0022008C169B3126239B319B31BE239B3172
:10363A009C3155249B319B3100239B318B310823CC
:10364A00080021000E151D08833918389D001D1425
:10365A009E131E088F3960389E00FC309E058F30FD
:10366A009F058F302000D80058082300E00008008A
:10367A0023008C018D0104308E0021009801FC305A
:10368A009900903027009B002200BB01BA01D101AA
:10369A00D0019B3113239B3189310A2108009B31C8
:1036AA003D239B318E3105269B310B1D5F2B9031BB
:1036BA0036209B3122005208503A031D672B943161
:1036CA0007249B31923192229B31572B2200B7015A
:1036DA0074302100A0000030A1000030A2000030A8
:1036EA00A3000030A4000030A5009D31A4253D00B0
:1036FA008E101211FB302100A60026083D0090050D
:10370A0008001E302000E5006508DF0001309C310A
:10371A00BA249B312000DC01A030E5006508DD00F9
:10372A004030E6006608DE0001309E316B2620003C
:10373A00E70067082200BB0008003D001215EF30C1
:10374A002100A60026083D0090058E142200B7012C
:10375A00B70A75302100A0000030A1000030A20095
:10376A000030A3000030A4000030A5009D31A4253C
:10377A00080021008E162C009301FF3020009B00C8
:10378A00C0302C009300E6302200EA002C009200A0
:10379A009101200091101C08FC3901389C001C156D
:1037AA0021008E122C0013170800F401F501701C79
:1037BA00E22B7208F4077308F53D0130F235F30D78
:1037CA00890BE32B0130F136F00C890BE82B7108D9
:1037DA007004031DDC2B7508F101F1077408F00170
:1037EA00F00708002000DC01DD01581C002C5A08F3
:1037FA00DC075B08DD3D0130DA35DB0D890B012C76
:10380A000130D936D80C890B062C59085804031DE7
:10381A00FA2B5D08D901D9075C08D801D807080036
:10382A0020005908E001E0075808DF01DF070130EE
:10383A00DC020030DD3BFF305D06031D262CFF3025
:10384A005C06031908005A08DE005F088600600853
:10385A0087005E0881000130DF070030E03D1C2C44
:10386A00003400340034003400340034003440346E
:10387A00AA34AA34AA342A34003400340034203456
:10388A009934993499341934553455345534153496
:10389A00923424344934123400340034003410345D
:1038AA0000302100E1000030E0000430DF00B030D9
:1038BA00DE008D31382521009512951107309504C7
:1038CA0022006B082000950021008E130E130E12A1
:1038DA008E11D83022008E0021000C1222000C1208
:1038EA0008003D00181C912C20006D0886008701F5
:1038FA000108803A031D8F2C680886008701010899
:10390A00843A031D8F2C8C30D8006D0886008701FD
:10391A00580881003D001810DF302000D8005808F0
:10392A003D00900508002000E501E11FA32CE009F5
:10393A00E109E00A0319E10AE501E50A6008D8008D
:10394A006108D900DA018E30E3006308DB006508FC
:10395A00E4006408DC009031F12020005808E000FF
:10396A005908E1005A08E20008002000E4005F1D3F
:10397A00C32CD80164089D31E3259C312000DF1C4B
:10398A00CB2CD801D80A64089D31E32520006408AD
:10399A00983EE000E1010E30E13D6008E200610876
:1039AA00E3005F08E0006208860063088700600899
:1039BA00810008008E302000E4006408E500FF3032
:1039CA0063050319F42C0130E336E20CE10CE00C38
:1039DA00890BE92C0130E4006408E507E42C60084F
:1039EA00D8006108D9006208DA006508E4006408B2
:1039FA00DB00DC019031F12020005808E000590872
:103A0A00E1005A08E200080020006C08023A031D8F
:103A1A00112D9731582708002000EC012200AC082C
:103A2A00031D332D08302000DE006E0A8600870150
:103A3A005E0881004030DE000030DF006E08023E82
:103A4A00860087015E08C03F5F08C13F8C30DE00F8
:103A5A006E08860087015E08810008002200AC011A
:103A6A0008002000DD01DE01590858040319662DFB
:103A7A00DF01DF0AD91B4B2D0130D835D90D890B4F
:103A8A00422D0130DC005C08DF073F2D0130DD35B7
:103A9A00DE0D890B4C2D59085B02031D562D580863
:103AAA005A02031C5D2D5808DA025908DB3B5D14E3
:103ABA000130D936D80C890B5E2D0130DF02031D87
:103ACA004B2D5E08D901D9075D08D801D80708002F
:103ADA0020005808DD005908DE005A08DF005B089C
:103AEA00E0005C03FF3A203E890A802D0310E00CB7
:103AFA00DF0CDE0CDD0CFF3E031D7B2D5808E100B8
:103B0A005908E2005A08E3005B08E4005C0A912DB8
:103B1A00E135E20DE30DE40D890B8D2D6108DD041D
:103B2A006208DE046308DF046408E0046008DB005E
:103B3A005F08DA005E08D9005D08D8000800BA2DCF
:103B4A0090310420080090310220080090310320AF
:103B5A0008009B3186230800803103200800873142
:103B6A00FD27080090310520080021002108003AAD
:103B7A000319C32D7F3A0319DD2DE22D2008013ADE
:103B8A000319AE2D033A0319B12D013A0319B42DC5
:103B9A00063A0319E22D773A0319E22D013A03197D
:103BAA00A52D073A0319AB2D013A0319A82DE22DC9
:103BBA002008FF3A0319B72DE22D08002000DD0086
:103BCA002030D9005908DE005808D9000130D9350B
:103BDA00890BEC2D5D08DA000130DA35FF3E031D52
:103BEA00F22D5A355907DB000130DB35FF3E031D44
:103BFA00FA2D5B35DC005C08DE075E08860087016B
:103C0A008113D808031D112E5E08D9005D08283ECD
:103C1A00860001308700172E5E08D9005D08683ECD
:103C2A0086008701590881005E0886008701011312
:103C3A005E08043E86008701011708002000DE01A5
:103C4A00DB1F2E2EDA09DB09DA0A0319DB0ADE0189
:103C5A00DE0AD91F352ED809D909D80A0319D90A73
:103C6A005908580403195C2EDD01DD0AD91B472EB9
:103C7A000130D835D90D890B3E2E0130DC005C08A5
:103C8A00DD073B2E59085B02031D4D2E58085A02C8
:103C9A00031C532E5808DA025908DB3B0130D93687
:103CAA00D80C890B542E0130DD02031D472E5E0805
:103CBA000319642EDA09DB09DA0A0319DB0A5B083D
:103CCA00D901D9075A08D801D80708002000E1000D
:103CDA005C080319752E6108683E860087017A2EF2
:103CEA006108283E8600013087000108DF005F086E
:103CFA00E200E208031D832E003008005D08DF00A1
:103D0A000230E0006208023E860087015F08C03F79
:103D1A006008C13F5E08DF00620A860087015F080B
:103D2A0081004030DF006208860087015F08810554
:103D3A008830DF006208860087015F0881045C081A
:103D4A000319AE2E0430DF006108683E8600870141
:103D5A00B52E0430DF006108283E86000130870056
:103D6A005F088106620808002200B801B901200034
:103D7A006C08023A031DDC2E0830DB006E0A86004E
:103D8A0087015B0881004830DB000030DC006E08E8
:103D9A00023E860087015B08C03F5C08C13FC8300D
:103DAA00DB006E08860087015B088100080022009C
:103DBA004B0820004702031DE62E22004A08200075
:103DCA0046020318F12E47082200CB01CB07200038
:103DDA0046082200CA01CA07953114259E31483087
:103DEA002000DB000030DC006808023E8600870104
:103DFA005B08C03F5C08C13FC830DB00680886002A
:103E0A0087015B08810008002200C6012000EB013F
:103E1A002200B801B901AC012000EC017F30210079
:103E2A00AD00200068088600870121002D08810561
:103E3A000430AD002D082000E8067F302100AD00D7
:103E4A00200068088600870121002D0881050430BA
:103E5A00AD002D082000E8067F302100AD002000CB
:103E6A006E088600870121002D0881052200C901FC
:103E7A00CA01CB012300A201A301A401903193201E
:103E8A009F3103302100A0000030A1000030A200C1
:103E9A000030A3000030A4000030A5009D31A42505
:103EAA009F319231192208002000C8010030C90050
:103EBA00912F2200C9172000481422003208013A23
:103ECA00031D9D2F2000C8149D2F2200C9179D2F66
:103EDA002200C9172000C41B792F44080F39283E35
:103EEA008600013087007E2F44080F39683E86001D
:103EFA0087010108D8005808D900590886008701A7
:103F0A00811F9D2F590886008701011D9D2F0130B1
:103F1A00D8005808C8009D2F40081F39003A0319D5
:103F2A005E2F013A03196A2F033A03196D2F9D2F49
:103F3A002200C91F08004830C7000030C8004914D1
:103F4A0002302000D80058082200CA0008002000C9
:103F5A00DE01D91FB72FD809D909D80A0319D90AF6
:103F6A00DE01DE0ADB1FC22FDA09DB09DA0A0319CE
:103F7A00DB0A0130DC005C08DE06DF01E0015908DB
:103F8A0058040319F12FDD01DD0AD91BD62F0130A0
:103F9A00D835D90D890BCD2F0130DC005C08DD073F
:103FAA00CA2F0130DF35E00D890BD72F59085B0284
:103FBA00031DE12F58085A02031CE82F5808DA0299
:103FCA005908DB3B5F140130D936D80C890BE92F2D
:103FDA000130DD02031DD62F5E080319F92FDF0910
:103FEA00E009DF0A0319E00A6008D901D9075F0866
:063FFA00D801D807080001
:020000040001F9
:04000E0084CFCFDFED
:00000001FF
